:100000000C942A000C942F040C9462040C94950414
:100010000C9447000C9447000C9447000C94FB048C
:100020000C9447000C94C8040C9447000C944700AF
:100030000C9447000C9447000C9447000C94470024
:100040000C9447000C9447000C9447000C94470014
:100050000C94470011241FBECFE5D8E0DEBFCDBF12
:1000600010E0A0E6B0E0E4EDFEE002C005900D92E5
:10007000A636B107D9F710E0A6E6B0E001C01D92A0
:10008000AF36B107E1F70E945F070C9468070C9444
:100090000000DF93CF93CDB7DEB727970FB6F89464
:1000A000DEBF0FBECDBF89836A834B838A818830D0
:1000B00008F0D2C08B81813009F063C08981282F7C
:1000C00030E03F832E838E819F8181309105E9F05E
:1000D0002E813F812230310561F18E819F81009711
:1000E000E1F5AAE3B0E0EAE3F0E08081482F8A81FD
:1000F000282F30E081E090E0022E02C0880F991F87
:100100000A94E2F7842B8C93A7C0A7E3B0E0E7E35F
:10011000F0E08081482F8A81282F30E081E090E054
:10012000022E02C0880F991F0A94E2F7842B8C9349
:1001300093C0A4E3B0E0E4E3F0E08081482F8A813B
:10014000282F30E081E090E0022E02C0880F991F36
:100150000A94E2F7842B8C937FC0A1E3B0E0E1E343
:10016000F0E08081482F8A81282F30E081E090E004
:10017000022E02C0880F991F0A94E2F7842B8C93F9
:100180006BC08B81882309F067C08981282F30E0FC
:100190003D832C838C819D8181309105F9F02C81E8
:1001A0003D812230310579F18C819D81009709F0E4
:1001B0003FC0AAE3B0E0EAE3F0E08081482F8A8103
:1001C000282F30E081E090E0022E02C0880F991FB6
:1001D0000A94E2F7809584238C933EC0A7E3B0E0B5
:1001E000E7E3F0E08081482F8A81282F30E081E02A
:1001F00090E0022E02C0880F991F0A94E2F78095C2
:1002000084238C9329C0A4E3B0E0E4E3F0E0808190
:10021000482F8A81282F30E081E090E0022E02C032
:10022000880F991F0A94E2F7809584238C9314C059
:10023000A1E3B0E0E1E3F0E08081482F8A81282F3C
:1002400030E081E090E0022E02C0880F991F0A94EE
:10025000E2F7809584238C9327960FB6F894DEBF3F
:100260000FBECDBFCF91DF910895DF93CF9300D024
:1002700000D0CDB7DEB789836A838981843030F5B9
:100280008981282F30E03C832B838B819C818130B6
:10029000910571F02B813C812230310571F08B8109
:1002A0009C81009779F4EAE3F0E08A8180830EC0B4
:1002B000E7E3F0E08A81808309C0E4E3F0E08A812B
:1002C000808304C0E1E3F0E08A8180830F900F9087
:1002D0000F900F90CF91DF910895DF93CF93CDB71B
:1002E000DEB727970FB6F894DEBF0FBECDBF898368
:1002F0006A834B838A81883008F0D9C08B81813032
:1003000021F08B81882309F0D2C08B81813009F0E4
:1003100063C08981282F30E03F832E838E819F81A7
:1003200081309105E9F02E813F812230310561F164
:100330008E819F810097E1F5ABE3B0E0EBE3F0E065
:100340008081482F8A81282F30E081E090E0022EC2
:1003500002C0880F991F0A94E2F7842B8C93A7C0E0
:10036000A8E3B0E0E8E3F0E08081482F8A81282FFD
:1003700030E081E090E0022E02C0880F991F0A94BD
:10038000E2F7842B8C9393C0A5E3B0E0E5E3F0E0C3
:100390008081482F8A81282F30E081E090E0022E72
:1003A00002C0880F991F0A94E2F7842B8C937FC0B8
:1003B000A2E3B0E0E2E3F0E08081482F8A81282FB9
:1003C00030E081E090E0022E02C0880F991F0A946D
:1003D000E2F7842B8C936BC08B81882309F067C074
:1003E0008981282F30E03D832C838C819D81813051
:1003F0009105F9F02C813D812230310579F18C8114
:100400009D81009709F03FC0ABE3B0E0EBE3F0E083
:100410008081482F8A81282F30E081E090E0022EF1
:1004200002C0880F991F0A94E2F7809584238C9369
:100430003EC0A8E3B0E0E8E3F0E08081482F8A8185
:10044000282F30E081E090E0022E02C0880F991F33
:100450000A94E2F7809584238C9329C0A5E3B0E049
:10046000E5E3F0E08081482F8A81282F30E081E0A9
:1004700090E0022E02C0880F991F0A94E2F780953F
:1004800084238C9314C0A2E3B0E0E2E3F0E0808127
:10049000482F8A81282F30E081E090E0022E02C0B0
:1004A000880F991F0A94E2F7809584238C932796EE
:1004B0000FB6F894DEBF0FBECDBFCF91DF91089588
:1004C000DF93CF9300D000D0CDB7DEB789836A83A6
:1004D0008981843030F58981282F30E03C832B835B
:1004E0008B819C818130910571F02B813C81223080
:1004F000310571F08B819C81009779F4EBE3F0E09A
:100500008A8180830EC0E8E3F0E08A81808309C09D
:10051000E5E3F0E08A81808304C0E2E3F0E08A81D1
:1005200080830F900F900F900F90CF91DF910895DF
:10053000DF93CF9300D000D00F92CDB7DEB7898381
:100540006A838A81883010F01D825FC08981282FDC
:1005500030E03C832B834B815C8141305105E9F0D5
:100560008B819C818230910559F12B813C81211531
:100570003105C9F5E9E3F0E08081282F30E08A8178
:10058000882F90E0A90102C0559547958A95E2F71A
:10059000CA01582F51705D8338C0E6E3F0E08081D6
:1005A000282F30E08A81882F90E0A90102C055955C
:1005B00047958A95E2F7CA01582F51705D8325C08F
:1005C000E3E3F0E08081282F30E08A81882F90E0FB
:1005D000A90102C0559547958A95E2F7CA01582F9F
:1005E00051705D8312C0E0E3F0E08081282F30E09D
:1005F0008A81882F90E0A90102C0559547958A9578
:10060000E2F7CA01582F51705D838D810F900F90D2
:100610000F900F900F90CF91DF910895DF93CF93BC
:1006200000D000D0CDB7DEB789838981843010F047
:100630001C8226C08981282F30E03B832A838A814F
:100640009B818130910571F02A813B8122303105F7
:1006500071F08A819B81009779F4E9E3F0E0908161
:100660009C830EC0E6E3F0E020812C8309C0E3E325
:10067000F0E030813C8304C0E3E3F0E080818C83D0
:100680008C810F900F900F900F90CF91DF91089574
:10069000DF93CF9300D0CDB7DEB79A838983AFE5E0
:1006A000B0E0EFE5F0E0808180688C93ABE5B0E0EE
:1006B000EBE5F0E09081E981FA818081892B8C93D0
:1006C000E981FA818081803459F4A5E5B0E0E5E55F
:1006D000F0E09081E981FA818181892B8C9334C08B
:1006E000E981FA818081803891F4A5E5B0E0E5E503
:1006F000F0E08081282FE981FA818181882F90E0C4
:10070000880F991F880F991F822B8C931DC0E98138
:10071000FA8180818032C1F4A4E5B0E0E4E5F0E044
:100720008081282FE981FA818181882F90E0817072
:1007300090700024969587950794969587950794D1
:10074000982F802D822B8C930F900F90CF91DF915B
:100750000895DF93CF9300D0CDB7DEB79A83898316
:10076000ABE5B0E0EBE5F0E08081982FE981FA811C
:100770008081809589238C930F900F90CF91DF918A
:100780000895DF93CF9300D0CDB7DEB79A838983E6
:10079000E981FA818081803459F4A5E5B0E0E5E58E
:1007A000F0E09081E981FA818181892B8C9334C0BA
:1007B000E981FA818081803891F4A5E5B0E0E5E532
:1007C000F0E08081282FE981FA818181882F90E0F3
:1007D000880F991F880F991F822B8C931DC0E98168
:1007E000FA8180818032C1F4A4E5B0E0E4E5F0E074
:1007F0008081282FE981FA818181882F90E08170A2
:100800009070002496958795079496958795079400
:10081000982F802D822B8C930F900F90CF91DF918A
:100820000895DF93CF9300D00F92CDB7DEB79A83B0
:1008300089836B838B81833060F48B81882F90E078
:1008400029813A81880F991FFC01EA59FF4F3183B2
:1008500020830F900F900F90CF91DF9108951F92FA
:100860000F920FB60F9211242F933F934F935F93E4
:100870006F937F938F939F93AF93BF93EF93FF9368
:10088000DF93CF93CDB7DEB780916600909167007C
:10089000009729F0E0916600F09167000995CF91EB
:1008A000DF91FF91EF91BF91AF919F918F917F91D8
:1008B0006F915F914F913F912F910F900FBE0F90CD
:1008C0001F9018951F920F920FB60F9211242F931D
:1008D0003F934F935F936F937F938F939F93AF93C8
:1008E000BF93EF93FF93DF93CF93CDB7DEB78091A4
:1008F000680090916900009729F0E0916800F091FC
:1009000069000995CF91DF91FF91EF91BF91AF9170
:100910009F918F917F916F915F914F913F912F9117
:100920000F900FBE0F901F9018951F920F920FB649
:100930000F9211242F933F934F935F936F937F9365
:100940008F939F93AF93BF93EF93FF93DF93CF93D7
:10095000CDB7DEB780916A0090916B00009729F0C7
:10096000E0916A00F0916B000995CF91DF91FF91C2
:10097000EF91BF91AF919F918F917F916F915F9117
:100980004F913F912F910F900FBE0F901F90189590
:100990001F920F920FB60F9211242F933F934F93F4
:1009A0005F936F937F938F939F93AF93BF93EF93D7
:1009B000FF93DF93CF93CDB7DEB780916C0090911A
:1009C0006D00009729F0E0916C00F0916D000995A1
:1009D000CF91DF91FF91EF91BF91AF919F918F9157
:1009E0007F916F915F914F913F912F910F900FBE2B
:1009F0000F901F9018951F920F920FB60F9211240F
:100A00002F933F934F935F936F937F938F939F9316
:100A1000AF93BF93EF93FF93DF93CF93CDB7DEB741
:100A200080916C0090916D00009729F0E0916C002E
:100A3000F0916D000995CF91DF91FF91EF91BF91FA
:100A4000AF919F918F917F916F915F914F913F9166
:100A50002F910F900FBE0F901F901895DF93CF939B
:100A600000D0CDB7DEB79A838983EFE4F0E08CE065
:100A70008083AEE4B0E0E981FA818481282FE981A6
:100A8000FA818581882F90E0880F991F880F991F20
:100A9000880F991F822B8C93E981FA81858181309F
:100AA00071F4AAE4B0E0E981FA8182819381119620
:100AB0009C938E93E9E5F0E080E1808312C0E981A8
:100AC000FA818581882369F4ACE4B0E0E981FA8198
:100AD0008081918111969C938E93E9E5F0E084E00A
:100AE00080830F900F90CF91DF910895DF93CF9384
:100AF000CDB7DEB76FE470E04EE450E029E530E0BA
:100B0000ACE4B0E0EAE4F0E01182108280819181EF
:100B100011969C938E938D919C911197F9018083EE
:100B2000F9018081FA018083FA018081FB018083D1
:100B3000CF91DF910895DF93CF93CDB7DEB7ECE48B
:100B4000F0E080819181CF91DF910895DF93CF9381
:100B500000D0CDB7DEB79A83898389819A8190933B
:100B60006D0080936C000F900F90CF91DF910895EE
:100B7000DF93CF93CDB7DEB72F970FB6F894DEBFD4
:100B80000FBECDBFAFE5B0E0EFE5F0E0808180685B
:100B90008C93CE0101969C878B87E0E6F0E0FE8780
:100BA000ED87F6E0FF87ED85FE8500808D859E85CB
:100BB00001969E878D87EB85FC8500828B859C85C1
:100BC00001969C878B879F8591509F87EF85EE23A9
:100BD00051F7CE0101960E942E0586E296E00E9412
:100BE000A60580E48F8382E08887CE0107960E9465
:100BF000480380E8898782E08A87CE0109960E94AF
:100C0000480380E496E061E00E94110482E396E0EC
:100C100060E00E94110483E062E040E00E9449002D
:100C200083E063E040E00E94490080E06FEF0E94B3
:100C3000350181E06FEF0E9435012F960FB6F894D1
:100C4000DEBF0FBECDBFCF91DF910895DF93CF936D
:100C5000CDB7DEB780916E008F5F80936E00CF912D
:100C6000DF910895DF93CF93CDB7DEB780916E000B
:100C70008A3018F083E180936E00CF91DF91089560
:100C8000DF93CF93CDB7DEB780916E008A3018F432
:100C900089E080936E00CF91DF910895DF93CF9329
:100CA000CDB7DEB780916E008823E9F581E060E082
:100CB00041E00E946D0181E061E040E00E946D0131
:100CC00081E062E040E00E946D0181E063E041E08C
:100CD0000E946D0181E064E040E00E946D0181E0CE
:100CE00065E040E00E946D0181E066E040E00E9426
:100CF0006D0181E067E040E00E946D0180E060E00E
:100D000041E00E946D0180E061E040E00E946D01E1
:100D100080E062E040E00E946D0180E063E041E03D
:100D20000E946D01C9C080916E008930E9F581E0B3
:100D300060E041E00E946D0181E061E040E00E94DE
:100D40006D0181E062E040E00E946D0181E063E0BE
:100D500041E00E946D0181E064E040E00E946D018D
:100D600081E065E040E00E946D0181E066E040E0E6
:100D70000E946D0181E067E041E00E946D0180E02A
:100D800060E040E00E946D0180E061E040E00E9490
:100D90006D0180E062E041E00E946D0180E063E06F
:100DA00040E00E946D0188C080916E008B30E9F5B3
:100DB00081E060E040E00E946D0181E061E040E0A0
:100DC0000E946D0181E062E041E00E946D0181E0DE
:100DD00063E040E00E946D0181E064E040E00E9439
:100DE0006D0181E065E041E00E946D0181E066E017
:100DF00041E00E946D0181E067E040E00E946D01EA
:100E000080E060E040E00E946D0180E061E041E050
:100E10000E946D0180E062E040E00E946D0180E090
:100E200063E040E00E946D0147C080916E00833115
:100E3000E9F581E060E040E00E946D0181E061E061
:100E400041E00E946D0181E062E040E00E946D019E
:100E500081E063E040E00E946D0181E064E041E0F8
:100E60000E946D0181E065E040E00E946D0181E03B
:100E700066E041E00E946D0181E067E040E00E9491
:100E80006D0180E060E040E00E946D0180E061E083
:100E900041E00E946D0180E062E040E00E946D014F
:100EA00080E063E040E00E946D0106C080916E002A
:100EB000853110F010926E00CF91DF910895DF938D
:100EC000CF93CDB7DEB70E94B8050E944E06FDCF86
:040ED000F894FFCFC4
:060ED4000000420F0501C1
:00000001FF
